:04000000D9EF0BF039
:101000000000010E676E000E666E000E686E000E28
:101010006A6E000E696E6350D8B411EF08F013EFDA
:1010200008F0F9EF08F06450D8B419EF08F01BEF9E
:1010300008F0F9EF08F0EFEF08F06350D96EDA6AC4
:10104000080ED926DF50D8A428EF08F02AEF08F0C0
:1010500087EF08F0000E6C6E000E6B6E63506B2411
:101060005B6E010E5C6E94EC09F0000E6A6E000E71
:10107000696E63506924040F5B6E680E5C6EB2EC9F
:101080000AF06804D8A447EF08F049EF08F059EFD8
:1010900008F06B50040DF350800F6924D96EDA6AA2
:1010A0006450E16EE26ADFCFE7FF010E666E66EF25
:1010B00008F0694A6A2A6A5009E1040E695CD8A0FE
:1010C00064EF08F066EF08F039EF08F063506B2426
:1010D0005B6E000E5C6E94EC09F0676E6804D8A439
:1010E00074EF08F076EF08F078EF08F0EFEF08F013
:1010F0006B4A6C2A6C5009E1040E6B5CD8A083EF3C
:1011000008F085EF08F02EEF08F0EFEF08F06350DD
:10111000D96EDA6A080ED926DE04D8A492EF08F058
:1011200094EF08F0EFEF08F0000E6C6E000E6B6E9F
:1011300063506B245B6E000E5C6E94EC09F0000E45
:101140006A6E000E696E63506924040F5B6E680E50
:101150005C6EB2EC0AF06850D8A4B1EF08F0B3EFBF
:1011600008F0C3EF08F06B50040DF350800F6924B2
:10117000D96EDA6A6450E16EE26ADFCFE7FF010EF2
:10118000666ED0EF08F0694A6A2A6A5009E1040ED7
:10119000695CD8A0CEEF08F0D0EF08F0A3EF08F01C
:1011A00063506B245B6E010E5C6E94EC09F0676E0D
:1011B0006850D8A4DEEF08F0E0EF08F0E2EF08F0A6
:1011C000EFEF08F06B4A6C2A6C5009E1040E6B5C7F
:1011D000D8A0EDEF08F0EFEF08F098EF08F06650B8
:1011E000D8B4F5EF08F0F7EF08F01DEF08F0FBEFCB
:1011F00008F0000E676E67501200010E616E5B50C2
:10120000D8B405EF09F007EF09F025EF09F05B50BE
:10121000D96EDA6ADF30E832E832070B5C6E080E0E
:101220005C6015EF09F017EF09F025EF09F05B504E
:10123000D96EDA6ADF50070B5C6E040E5C6423EF34
:1012400009F025EF09F07CEF09F0000E616E92EFD6
:1012500009F05B50D96EDA6ADF30E832E832070B0A
:101260005C6E010E5D6E5C2A38EF09F0D8905D3639
:101270005C2E36EF09F05D50FF0A5E6E5B50D96E52
:10128000DA6ADF50070B020DF350150FD96EDA6AD8
:10129000DECF5FF0DDCF60F05FC0D9FF60C0DAFF66
:1012A0005E50DF1692EF09F05B50D96EDA6ADF30DC
:1012B000E832E832070B5C6E010E5D6E5C2A63EF6C
:1012C00009F0D8905D365C2E61EF09F05B50D96E65
:1012D000DA6ADF50070B020DF350150FD96EDA6A88
:1012E000DECF5EF0DDCF5FF05EC0D9FF5FC0DAFF1A
:1012F0005D50DF1292EF09F05B50D96EDA6ADFBC05
:1013000084EF09F087EF09F0010E88EF09F0000E75
:10131000000AD8B429EF09F0010AD8B454EF09F053
:1013200025EF09F061501200010E626E5B50D8B4D7
:101330009CEF09F09EEF09F00DEF0AF05B50D96EBB
:10134000DA6ADFBCA6EF09F0A8EF09F00DEF0AF0AA
:101350005B50D96EDA6ADF30E832E832070B5D6E37
:10136000080E5D60B6EF09F0B8EF09F00DEF0AF076
:1013700011EF0AF05B50D96EDA6ADF30E832E832FA
:10138000070B5D6E010E5E6E5D2AC9EF09F0D89005
:101390005E365D2EC7EF09F05E50FF0A5F6E5B5050
:1013A000D96EDA6ADF50070B020DF3500B0FD96EBE
:1013B000DA6ADECF60F0DDCF61F060C0D9FF61C0D6
:1013C000DAFF5F50DF1626EF0AF05B50D96EDA6A5B
:1013D000DF30E832E832070B5D6E010E5E6E5D2A8B
:1013E000F4EF09F0D8905E365D2EF2EF09F05B5015
:1013F000D96EDA6ADF50070B020DF3500B0FD96E6E
:10140000DA6ADECF5FF0DDCF60F05FC0D9FF60C089
:10141000DAFF5E50DF1226EF0AF0000E626E26EF52
:101420000AF05C505D6E5E6A5E50000AD8B41BEF35
:101430000AF00DEF0AF05D50000AD8B4BAEF09F0D7
:10144000010AD8B4E5EF09F00DEF0AF0625012007E
:10145000000E6D6E6B50D8B430EF0AF032EF0AF028
:10146000AEEF0AF06BC063F004EC0CF06E6E6B50E4
:10147000020F636E04EC0CF06E6E6B28636E04EC6E
:101480000CF06E6E000E6D6E6B506D24030F636E6C
:1014900004EC0CF06D2A070E6D6451EF0AF053EF67
:1014A0000AF044EF0AF01A0E6C6EF80EE82EFED722
:1014B0006C2EFCD700D06BC065F0380E666E04EC65
:1014C0000BF0070E6C6E7D0EE82EFED76C2EFCD74F
:1014D00000006BC065F0380E666E04EC0BF0320E47
:1014E000E82EFED76BC065F0380E666E04EC0BF08C
:1014F0006BC065F0010E666E04EC0BF0030E6C6EB3
:10150000980EE82EFED76C2EFCD76BC065F0020E4D
:10151000666E04EC0BF0030E6C6E980EE82EFED790
:101520006C2EFCD76BC065F00D0E666E04EC0BF0F4
:10153000060EE82EFED700006BC065F0060E666E44
:1015400004EC0BF00D0EE82EFED76BC065F0380EE4
:10155000666E04EC0BF06E6EB0EF0AF0000E6E6E6D
:101560006E501200010E616E5B50D8B4BAEF0AF0F3
:10157000BCEF0AF000EF0BF05B50D96EDA6ADF3097
:10158000E832E832070B5D6E080E5D60CAEF0AF0C4
:10159000CCEF0AF000EF0BF05C50D8B4D2EF0AF0B9
:1015A000D4EF0AF000EF0BF05C50D96EDA6A5B50B2
:1015B000E16EE26AE730E832E832070B5D6E5B50BD
:1015C000E16EE26AE750070B020DF350010FE16E86
:1015D000E26AE6CF5EF0E5CF5FF05EC0E1FF5FC09C
:1015E000E2FFE750606E5D2AF8EF0AF0D8906032B3
:1015F0005D2EF6EF0AF06050010BDF6E02EF0BF08C
:10160000000E616E61501200000E6A6E6550D8B413
:101610000CEF0BF00EEF0BF03BEF0BF065C05BF047
:10162000000E5C6E94EC09F0000E6A6E65506A2440
:10163000030F5B6E6AC067F066C068F0672A23EF2D
:101640000BF0D8906832672E21EF0BF06850010B39
:101650005C6E94EC09F06A2A070E6A6432EF0BF0B4
:1016600034EF0BF016EF0BF065C063F040EC0CF0BC
:10167000696E3DEF0BF0000E696E69501200000EAE
:101680006A6E6550D8B447EF0BF049EF0BF076EF78
:101690000BF065C05BF0010E5C6E94EC09F0000E7F
:1016A0006A6E65506A24030F5B6E6AC067F066C09D
:1016B00068F0672A5EEF0BF0D8906832672E5CEF17
:1016C0000BF06850010B5C6E94EC09F06A2A070E6F
:1016D0006A646DEF0BF06FEF0BF051EF0BF065C02C
:1016E00063F040EC0CF0696E78EF0BF0000E696E61
:1016F00069501200000E676E6550D8B482EF0BF08F
:1017000084EF0BF0A8EF0BF0000E676E65506724B6
:10171000636E04EC0CF0672A030E676492EF0BF023
:1017200094EF0BF086EF0BF0000E676E65506724A8
:10173000040F5B6EFDEC08F0666E672A030E6764AB
:10174000A4EF0BF0A6EF0BF096EF0BF0AAEF0BF067
:10175000000E666E66501200800F810F820F830F9D
:10176000840F890F8A0F8B0F8C0F8D0F920F930FA1
:10177000940F950F960FC0F9A4B0999282F88090BB
:101780003F065B4F666D7D077F6F1F1F1B110011AA
:101790001B1F0C1201010204081006091010080496
:1017A00002010E0A11111F1F1F000E0A1111111143
:1017B0001F001A0EF66E190EF76E000EF86E00EE90
:1017C00080F010EE24F00900F5CFEEFFE550E15077
:1017D000FAE1580EF66E170EF76E000EF86E00EE78
:1017E00001F010EE5AF00900F5CFEEFFE550E150A0
:1017F000FAE100EE73F0080EEE6AE806FDE1000E75
:10180000F86E000175EF0CF0010E646E6350D8B4F1
:101810000CEF0CF00EEF0CF01FEF0CF063C05BF060
:10182000FDEC08F063C05BF06350D96EDA6A000E1D
:10183000DFBE010E5C6E94EC09F021EF0CF0000E9F
:10184000646E645012006D50D8B429EF0CF02BEF89
:101850000CF03FEF0CF06DC063F06EC064F001EC73
:1018600008F06F6E6D50090F656E6E50D96EDA6AB2
:10187000DF50666E3FEC0BF06F163FEF0CF012007E
:101880006350D8B446EF0CF048EF0CF058EF0CF072
:1018900063285B6E010E5C6E94EC09F000D0632847
:1018A0005B6E000E5C6E94EC09F0646E5AEF0CF007
:1018B000000E646E645012006F50D8B462EF0CF0EA
:1018C00064EF0CF071EF0CF06FC065F07AEC0BF088
:1018D000706E6F50090F6B6E28EC0AF0701673EF84
:1018E0000CF0000E706E705012009FEC0CF0900E19
:1018F0006D6E7A0E6E6E23EC0CF0030E726E490E56
:10190000716E660EE82EFED7712EFCD7722EFAD7B6
:1019100000D077EF0CF000EF00F03738392F343576
:10192000362A3132332D47303D2B000810184149FB
:1019300051590002120A030B131B232B333B900E49
:0A1940006F6E5CEC0CF07B6E120081
:020000040030CA
:0E000000FF02091EFF8181FF0FC00FE00F40BD
:00000001FF
