:040000007CEF0BF096
:101000000000010E5F6E5E6A606A000E626E000E86
:10101000616E5B50D8B40FEF08F011EF08F0F7EFF6
:1010200008F05C50D8B417EF08F019EF08F0F7EFAC
:1010300008F0EDEF08F05B50D96EDA6A080ED92699
:10104000DF50D8A426EF08F028EF08F085EF08F06D
:10105000000E646E000E636E5B506324546E010ECE
:10106000556E86EC09F0000E626E000E616E5B50EC
:101070006124040F546E600E556E95EC0AF0600406
:10108000D8A445EF08F047EF08F057EF08F0635099
:10109000040DF350010F6124D96EDA6A5C50E16EE1
:1010A000E26ADFCFE7FF010E5E6E64EF08F0614A8F
:1010B000622A625009E1040E615CD8A062EF08F078
:1010C00064EF08F037EF08F05B506324546E000EB5
:1010D000556E86EC09F05F6E6004D8A472EF08F0DC
:1010E00074EF08F076EF08F0EDEF08F0634A642A39
:1010F000645009E1040E635CD8A081EF08F083EF2F
:1011000008F02CEF08F0EDEF08F05B50D96EDA6ACA
:10111000080ED926DE04D8A490EF08F092EF08F06C
:10112000EDEF08F0000E646E000E636E5B506324FA
:10113000546E000E556E86EC09F0000E626E000EC5
:10114000616E5B506124040F546E600E556E95EC19
:101150000AF06050D8A4AFEF08F0B1EF08F0C1EF8B
:1011600008F06350040DF350010F6124D96EDA6A60
:101170005C50E16EE26ADFCFE7FF010E5E6ECEEFFC
:1011800008F0614A622A625009E1040E615CD8A04D
:10119000CCEF08F0CEEF08F0A1EF08F05B5063242D
:1011A000546E010E556E86EC09F05F6E6050D8A447
:1011B000DCEF08F0DEEF08F0E0EF08F0EDEF08F00C
:1011C000634A642A645009E1040E635CD8A0EBEF23
:1011D00008F0EDEF08F096EF08F05E50D8B4F3EFAA
:1011E00008F0F5EF08F01BEF08F0F8EF08F05F6A81
:1011F0005F501200010E596E5450D8B402EF09F03E
:1012000004EF09F022EF09F05450D96EDA6ADF30AA
:10121000E832E832070B556E080E556012EF09F000
:1012200014EF09F022EF09F05450D96EDA6ADF505A
:10123000070B556E040E556420EF09F022EF09F0FC
:101240006EEF09F0596A84EF09F05450D96EDA6AEA
:10125000DF30E832E832070B556E010E566E552A24
:1012600034EF09F0D8905636552E32EF09F056502B
:10127000FF0A576E5450D96EDA6ADF50070B586E6A
:1012800058504F0FD96EDA6ADF50D96EDA6A57506C
:10129000DF1684EF09F05450D96EDA6ADF30E83295
:1012A000E832070B556E010E566E552A5AEF09F0BB
:1012B000D8905636552E58EF09F05450D96EDA6A48
:1012C000DF50070B576E57504F0FD96EDA6ADF5059
:1012D000D96EDA6A5650DF1284EF09F05450D96E95
:1012E000DA6ADFBC76EF09F079EF09F0010E7AEFE8
:1012F00009F0000E000AD8B425EF09F0010AD8B4AD
:101300004BEF09F022EF09F059501200010E5A6E0E
:101310005450D8B48EEF09F090EF09F0F5EF09F0D2
:101320005450D96EDA6ADFBC98EF09F09AEF09F0F1
:10133000F5EF09F05450D96EDA6ADF30E832E8325E
:10134000070B566E080E5660A8EF09F0AAEF09F0D9
:10135000F5EF09F0F8EF09F05450D96EDA6ADF3092
:10136000E832E832070B566E010E576E562ABBEF75
:1013700009F0D8905736562EB9EF09F05750FF0AAA
:10138000586E5450D96EDA6ADF50070B596E5950B7
:101390004A0FD96EDA6ADF50D96EDA6A5850DF1612
:1013A0000DEF0AF05450D96EDA6ADF30E832E832D5
:1013B000070B566E010E576E562AE1EF09F0D890D2
:1013C0005736562EDFEF09F05450D96EDA6ADF50E7
:1013D000070B586E58504A0FD96EDA6ADF50D96E33
:1013E000DA6A5750DF120DEF0AF05A6A0DEF0AF071
:1013F0005550566E576A5750000AD8B402EF0AF09B
:10140000F5EF09F05650000AD8B4ACEF09F0010A24
:10141000D8B4D2EF09F0F5EF09F05A50120063503A
:10142000D8B415EF0AF017EF0AF092EF0AF063C094
:101430005BF0D1EC0BF0666E6350020F5B6ED1EC8B
:101440000BF0666E63285B6ED1EC0BF0666E656A1E
:1014500063506524030F5B6ED1EC0BF0652A070E19
:10146000656435EF0AF037EF0AF028EF0AF01A0E3C
:10147000646EF80EE82EFED7642EFCD700D063C051
:101480005DF0380E5E6EE1EC0AF0070E646E7D0EC4
:10149000E82EFED7642EFCD7000063C05DF0380E46
:1014A0005E6EE1EC0AF0320EE82EFED763C05DF00E
:1014B000380E5E6EE1EC0AF063C05DF0010E5E6E08
:1014C000E1EC0AF0030E646E980EE82EFED7642E4F
:1014D000FCD763C05DF0020E5E6EE1EC0AF0030E15
:1014E000646E980EE82EFED7642EFCD763C05DF0C4
:1014F0000D0E5E6EE1EC0AF0060EE82EFED700003F
:1015000063C05DF0060E5E6EE1EC0AF00D0EE82E93
:10151000FED763C05DF0380E5E6EE1EC0AF0666ED9
:1015200093EF0AF0666A66501200010E596E54502D
:10153000D8B49DEF0AF09FEF0AF0DEEF0AF05450A6
:10154000D96EDA6ADF30E832E832070B566E080EE1
:101550005660ADEF0AF0AFEF0AF0DEEF0AF055503B
:10156000D8B4B5EF0AF0B7EF0AF0DEEF0AF0555045
:10157000D96EDA6A5450E16EE26AE730E832E83256
:10158000070B566E5450E16EE26AE750070B576E38
:101590005750450FE16EE26AE750E16EE26AE750AC
:1015A000586E562AD6EF0AF0D8905832562ED4EFFD
:1015B0000AF05850010BDF6EDFEF0AF0596A5950FC
:1015C00012005D50D8B4E7EF0AF0E9EF0AF015EF2A
:1015D0000BF05DC054F0000E556E86EC09F0626AA7
:1015E0005D506224030F546E62C05FF05EC060F015
:1015F0005F2AFDEF0AF0D89060325F2EFBEF0AF011
:101600006050010B556E86EC09F0622A070E626489
:101610000CEF0BF00EEF0BF0F0EF0AF05DC05BF09B
:101620000CEC0CF0616E16EF0BF0616A6150120069
:101630005D50D8B41EEF0BF020EF0BF04CEF0BF029
:101640005DC054F0010E556E86EC09F0626A5D5083
:101650006224030F546E62C05FF05EC060F05F2AC8
:1016600034EF0BF0D89060325F2E32EF0BF0605009
:10167000010B556E86EC09F0622A070E626443EF97
:101680000BF045EF0BF027EF0BF05DC05BF00CECBF
:101690000CF0616E4DEF0BF0616A615012005D500D
:1016A000D8B455EF0BF057EF0BF079EF0BF05F6A02
:1016B0005D505F245B6ED1EC0BF05F2A030E5F641C
:1016C00064EF0BF066EF0BF058EF0BF05F6A5D50C4
:1016D0005F24040F546EFAEC08F05E6E5F2A030E6E
:1016E0005F6475EF0BF077EF0BF067EF0BF07AEFBD
:1016F0000BF05E6A5E501200AE0EF66E180EF76EBC
:10170000000EF86E00EE80F010EE14F00900F5CF38
:10171000EEFFE550E150FAE14E0EF66E170EF76E51
:10172000000EF86E00EE01F010EE53F00900F5CF58
:10173000EEFFE550E150FAE100EE6BF0080EEE6AC4
:10174000E806FDE1000EF86E000127EF0CF03738D7
:10175000392F3435362A3132332D47303D2BC0F9FD
:10176000A4B0999282F880903F065B4F666D7D072A
:101770007F6F0C1201010204081006091010080402
:1017800002010E0A11111F1F1F000E0A1111111163
:101790001F008081828384898A8B8C8D929394959B
:0117A00096B2
:1017A200010E5C6E5B50D8B4D9EF0BF0DBEF0BF09F
:1017B200ECEF0BF05BC054F0FAEC08F05BC054F0B5
:1017C2005B50D96EDA6A000EDFBE010E556E86ECF2
:1017D20009F0EDEF0BF05C6A5C5012006550D8B472
:1017E200F5EF0BF0F7EF0BF00BEF0CF065C05BF0D1
:1017F20066C05CF001EC08F0676E6550090F5D6E23
:101802006650D96EDA6ADF505E6E18EC0BF067161E
:101812000BEF0CF012005B50D8B412EF0CF014EF87
:101822000CF024EF0CF05B28546E010E556E86EC22
:1018320009F000D05B28546E000E556E86EC09F05C
:101842005C6E25EF0CF05C6A5C50120061EC0CF0EF
:10185200800E656E720E666EEFEC0BF0030E6A6E12
:10186200490E696E660EE82EFED7692EFCD76A2EE7
:10187200FAD700D029EF0CF000EF00F06750D8B48F
:1018820045EF0CF047EF0CF054EF0CF067C05DF041
:101892004FEC0BF0686E6750090F636E0FEC0AF0A5
:1018A200681655EF0CF0686A6850120000081018AC
:1018B200414951590002120A030B131B232B333BDC
:0C18C200800E676E3FEC0CF0736E12009D
:020000040030CA
:0E000000FF02091EFF8181FF0FC00FE00F40BD
:00000001FF
